:060000000A128A11FC2F18
:100F7A00831203138C1DC22FC32FBD2F1308F00039
:100F8A007008080030308312031394008316031389
:100F9A009401061087110716871208001030831271
:100FAA00031390008E018F0110140C1CDD2FDE2F0D
:100FBA00DA2F0C10101008000A128A11C7270A1219
:100FCA008A11831203130610553093000A128A11EC
:100FDA00BD270A128A118312031306140A128A11F0
:100FEA00D3270A128A11E62F0A128A1100288301CE
:060FFA000A128A11E12F2A
:00000001FF
