:030000000208B53E
:0C08B500787FE4F6D8FD75817B0208FC1A
:100A3E0041542B434D47463D310D0041542B4350FD
:100A4E004D533D22534D220D0041542B434D4744EF
:100A5E003D312C340D0041542B434D47523D310D49
:100A6E00000D0A2B434D54493A2022534D222C316E
:030A7E000D0A005E
:100B82000F5CFF0A3EFF0A49FF0A57FF0A64FF0A89
:100B920057036BFF0A6F01080D015A1A015B00012E
:080BA2005900017400016E000E
:100BCD0075A890C290D2917590AAE4F5A0120BFA77
:080BDD00120A81120C0C80FECB
:040ABD008F798D7A26
:100AC100E4F57BE57BC395795023E57A75F003A4C2
:100AD100245CF8860308E6FA08E6F9857B827583CB
:0D0AE100001209CCF599120C06057B80D699
:010AEE0022E5
:060C06003099FDC29922A5
:0C0BFA00759850758921758DFDD28E22F2
:03002300020BAB22
:100BAB00C0E0C0D075D000C00030980FC2AF740940
:100BBB002574F8A6990574C298D2AFD000D0D0D0C6
:020BCB00E03216
:1008000012085412085412085412085412085412B0
:1008100008541208541208541208541208541208AA
:10082000541208541208541208541208541208544E
:100830001208541208541208541208541208541280
:10084000085412085412085412085412085412087A
:0408500054120854E2
:10085400E4FF0FBFFEFCE4FF0FBFFEFCE4FF0FBF8D
:10086400FEFCE4FF0FBFFEFCE4FF0FBFFEFCE4FF51
:100874000FBFFEFCE4FF0FBFFEFCE4FF0FBFFEFC56
:10088400E4FF0FBFFEFCE4FF0FBFFEFCE4FF0FBF5D
:10089400FEFCE4FF0FBFFEFCE4FF0FBFFEFCE4FF21
:1008A4000FBFFEFCE4FF0FBFFEFCE4FF0FBFFEFC26
:0108B4002221
:100A8100E4F575F56EE56E75F003A4245CF8860354
:100A910008E6FA08E6F9120BE5AD6E120ABD120876
:100AA10042E4F574FE7F50FDFB7A0079091209F9E1
:0C0AB100056EE56EC3940340CC020B53AD
:010C0C0022C5
:100B5300E4F574FE7F50FD7BFF7A0B79AB1209F944
:100B6300E4F574120800120B21EF6009C291120B15
:0F0B7300218FA080EBD29175A0FF120AEF80E1D5
:100AEF00E4F574FE7F50FD7BFF7A0B79AB1209F9A9
:100AFF00120800E56E75F003A4245CF8860308E67F
:100B0F00FA08E6F9120BE5AD6E120ABD12080002E3
:020B1F0009418A
:100B2100AB6BAA6CA96D120BE5AE07E4FDEDC39E9C
:100B3100501DAB6BAA6CA96D8D827583001209CC17
:100B4100FF74092DF8E6B507028001220D80DE7FD2
:010B510000A3
:010B52002280
:10094100E4F577F578F5767B007A007909120BE505
:10095100C3E5769FE49E502474092576F8E6B40D2C
:10096100020578E578B40310740B2576F8E6FF7478
:100971006F2577F8A6070577057680CBE4F574FE39
:100981007F50FDFB7A0079091209F9E56F6448602F
:1009910006E56F64687014AB62AA63A964120BE583
:1009A1007D02120ABD120842D29022E56F644C60AA
:1009B10006E56F646C7013AB62AA63A964120BE560
:0A09C1007D02120ABD12083CC2902C
:0109CB002209
:1008C100020BCDE493A3F8E493A34003F68001F275
:1008D10008DFF48029E493A3F85407240CC8C33338
:1008E100C4540F4420C8834004F456800146F6DF07
:1008F100E4800B0102040810204080900B82E47E0A
:10090100019360BCA3FF543F30E509541FFEE493FB
:10091100A360010ECF54C025E060A840B8E493A3C2
:10092100FAE493A3F8E493A3C8C582C8CAC583CAED
:10093100F0A3C8C582C8CAC583CADFE9DEE780BEA5
:010BAA00004A
:1009CC00BB010CE58229F582E5833AF583E02250E0
:1009DC0006E92582F8E622BBFE06E92582F8E2222A
:0D09EC00E58229F582E5833AF583E4932244
:100BE500E4FFFE120A25600C0FEF70010E09E97093
:050BF500F20A80EF226E
:1009F900EF4E6012EF60010EEDBB010B89828A8315
:100A0900F0A3DFFCDEFA2289F05007F709DFFCA921
:0C0A1900F022BBFEFCF309DFFCA9F02278
:100A2500BB010689828A83E0225002E722BBFE02CF
:090A3500E32289828A83E4932202
:00000001FF
